:10000000D2C00000FEC00000FCC00000FAC000002A
:10001000F8C00000F6C00000F4C00000F2C000000C
:10002000F0C00000EEC00000ECC00000EAC000001C
:10003000E8C00000E6C00000E4C00000E2C000002C
:10004000E0C00000DEC00000DCC00000DAC000003C
:10005000D8C00000D6C00000D4C00000F6C1000027
:10006000D0C0000065C200003AC20000CAC0000053
:10007000C8C00000C6C00000C4C00000C2C000006C
:10008000C0C00000BEC00000BCC00000BAC000007C
:10009000B8C00000B6C00000B4C00000B2C000008C
:1000A000B0C00000AEC00000ACC00000AAC000009C
:1000B000A8C00000A6C00000A4C00000A2C00000AC
:1000C000A0C000009EC000009CC000009AC00000BC
:1000D00098C0000096C0000094C0000092C00000CC
:1000E00090C0000000002200250028002B002E00F8
:1000F0003100340002010000050108010B0100007D
:100100002100240027002A002D00300033000101C7
:100110000000040107010A01050505050705080897
:100120000808020202020A0A080804040404010181
:100130000101010101010303030303030303040796
:1001400007070C0C0C0C0C0C0C0C0202020206062D
:100150000606060606060B0B0B0B0B0B0B0B010220
:1001600010202008081020401020408002010201C9
:100170000804020101020408102040808040201081
:1001800008040201800402018040201008040201DA
:100190000804020101020408102040800102040842
:1001A000102040800B0611241FBECFEFD1E2DEBF2E
:1001B000CDBF00E00CBF12E0A0E0B2E0ECE8FCE054
:1001C00000E00BBF02C007900D92A031B107D9F734
:1001D0002BE1A0E1B2E001C01D92A63BB207E1F71E
:1001E00010E0C3EDD0E000E005C021970109802FA9
:1001F000FE013ED5C23DD10780E00807B1F7CED160
:1002000043C5FECECF92DF92EF92FF920F931F93E2
:10021000CF93DF936C017A018B01C0E0D0E0CE1563
:10022000DF0589F0D8016D918D01D601ED91FC912A
:100230000190F081E02DC6011995892B11F47E0102
:1002400002C02196ECCFC701DF91CF911F910F9192
:10025000FF90EF90DF90CF900895FC01918D828DFB
:10026000981761F0828DDF01A80FB11D5D968C910A
:10027000928D9F5F9F73928F90E008958FEF9FEF15
:100280000895FC01918D828D981731F0828DE80FD1
:10029000F11D858D90E008958FEF9FEF0895FC018B
:1002A000918D228D892F90E0805C9F4F821B910958
:1002B0008F739927089580E192E0F1DF21E0892B87
:1002C00009F420E0822F0895FC01848DDF01A80F3E
:1002D000B11DA35ABF4F2C91848D90E001968F736E
:1002E0009927848FA689B7892C93A089B1898C918D
:1002F00080648C93938D848D981306C00288F38953
:10030000E02D80818F7D80830895EF92FF920F937F
:100310001F93CF93DF93EC0181E0888F9B8D8C8DB1
:10032000981305C0E889F989808185FD23C0F62EE0
:100330000B8D10E00F5F1F4F0F731127E02E8C8D78
:10034000E8120BC00FB607FCFACFE889F989808163
:1003500085FFF5CFCE01B8DFF2CF8B8DFE01E80F20
:10036000F11DE35AFF4FF0820B8FEA89FB898081F0
:10037000806207C0EE89FF896083E889F9898081FE
:100380008064808381E090E0DF91CF911F910F9195
:10039000FF90EF900895CF93DF93EC01888D882331
:1003A000C1F0EA89FB89808185FD05C0A889B989EA
:1003B0008C9186FD0EC00FB607FCF5CF808185FFBE
:1003C000F2CFA889B9898C9185FFEDCFCE017CDF72
:1003D000E8CFDF91CF91089580E090E0892B19F06C
:1003E0006ADF811125C080E090E0892B41F080E038
:1003F00090E0892B21F00E94000081111CC080E058
:1004000090E0892B41F080E090E0892B21F00E9460
:100410000000811113C080E090E0892BA1F080E002
:1004200090E0892B81F00E94000081110AC008959C
:100430000E940000D8CF0E940000E1CF0E9400007F
:10044000EACF0C94000008951BD41F920F920FB6B0
:100450000F9211242F933F938F939F93AF93BF934A
:100460008091B21B9091B31BA091B41BB091B51BAE
:100470003091B11B23E0230F2D3720F40196A11DED
:10048000B11D05C026E8230F0296A11DB11D2093C2
:10049000B11B8093B21B9093B31BA093B41BB0937A
:1004A000B51B8091AD1B9091AE1BA091AF1BB0917D
:1004B000B01B0196A11DB11D8093AD1B9093AE1B87
:1004C000A093AF1BB093B01BBF91AF919F918F9141
:1004D0003F912F910F900FBE0F901F9018951F9274
:1004E0000F920FB60F9211240BB60F922F933F93DA
:1004F0004F935F936F937F938F939F93AF93BF932C
:10050000EF93FF9380E192E0DFDEFF91EF91BF91E7
:10051000AF919F918F917F916F915F914F913F919B
:100520002F910F900BBE0F900FBE0F901F9018953C
:100530001F920F920FB60F9211240BB60F922F93AA
:100540008F939F93EF93FF93E0912002F09121020C
:100550008081E0912602F091270282FD12C09081F5
:10056000809129028F5F8F7320912A02821751F0A8
:10057000E0912902F0E0E05FFD4F958F8093290222
:1005800001C08081FF91EF919F918F912F910F90EA
:100590000BBE0F900FBE0F901F901895CF93DF9357
:1005A000CDB7DEB7C354D1090FB6F894DEBF0FBE86
:1005B000CDBF789484B5826084BD84B5816084BDEC
:1005C00085B5826085BD85B5816085BD80916E00F1
:1005D000816080936E001092810080918100826022
:1005E000809381008091810081608093810080915F
:1005F00080008160809380008091B100846080934E
:10060000B1008091B00081608093B0008091910032
:10061000826080939100809191008160809391002D
:10062000809190008160809390008091A100826011
:100630008093A1008091A10081608093A1008091AE
:10064000A00081608093A00080912101826080934E
:1006500021018091210181608093210180912001FD
:1006600081608093200180917A00846080937A0079
:1006700080917A00826080937A0080917A00816014
:1006800080937A0080917A00806880937A0010923B
:10069000C1008FEF8093040183BB8AB9809301016D
:1006A00080BB8093070184B980930A0187B981B91F
:1006B0001092050114BA1BB81092020111BA1092DF
:1006C000080115B810920B0118B812B8ADE2BFE0DE
:1006D0004DEA52E0CA011D92FC011192CF01FBE1EB
:1006E000AD3ABF07C1F78FEFFA018193AF01F2E096
:1006F0004F3D5F07C9F7E0E6F1E02491EAE1F1E060
:100700008491882399F090E0880F991FFC01E250B2
:10071000FF4FA591B491FC01EC51FF4F859194914D
:100720008FB7F894EC91E22BEC938FBFF89483E2AF
:100730008093900089E1809391008BE891E0909301
:1007400099008093980088EC90E090939B008093B0
:100750009A007894E1E6F1E02491EBE1F1E08491F4
:100760008823C9F090E0880F991FFC01E250FF4FE9
:1007700045915491FC01EC51FF4FA591B4919FB765
:10078000F894FA013081822F809583238083EC9145
:10079000E22BEC939FBF10927A00809164008160FD
:1007A00080936400809164008460809364008091F1
:1007B000640080688093640080916400806280930C
:1007C0006400809165008160809365008091650080
:1007D000826080936500E0912002F091210282E026
:1007E0008083E0911C02F0911D021082E0911E02B4
:1007F000F0911F0280E1808310922802E091240290
:10080000F091250286E08083E0912202F09123029C
:10081000808180618083E0912202F09123028081B7
:1008200088608083E0912202F091230280818068B9
:100830008083E0912202F091230280818F7D80836A
:100840006E01F1E2CF0ED11CD601FE01319611925C
:100850001D92EC15FD05D9F781E0898389A320E07D
:10086000312C212CEDE26E2EEFE07E2EFFED8F2E4F
:10087000F2E09F2EADEAAA2EA2E0BA2E2401850155
:1008800051E022965FAF2297E12CF12C6599FECFC3
:10089000F801808182B9818188B9828180930B01BE
:1008A000838185B9848180930801858181BB86819C
:1008B0008093020187818BB9808584BB8185809379
:1008C00005019091290280912A02328532B933853F
:1008D00038B9348530930B01358535B93685309379
:1008E0000801378531BB30893093020131893BB92A
:1008F000328934BB338930930501E0912A02F0E05C
:10090000E05FFD4F358DF801448942B9458948B90A
:10091000468940930B01478945B9408D40930801B2
:10092000418D41BB428D40930201438D4BB9448DB3
:1009300044BB458D40930501468D42B9478D48B96A
:1009400040A140930B0141A145B942A14093080148
:1009500043A141BB44A14093020145A14BB946A12B
:1009600044BB47A140930501339440A542B941A53A
:1009700048B942A540930B0143A545B944A540930E
:10098000080145A541BB46A54093020147A54BB9C7
:1009900040A944BB41A940930501F201408142B9FD
:1009A000418148B9428140930B01438145B944815B
:1009B00040930801458141BB468140930201478134
:1009C0004BB9408544BB41854093050141E0420D50
:1009D000528552B9538558B9548550930B015585AA
:1009E00055B9568550930801578551BB508950938E
:1009F000020151895BB9528954BB53895093050157
:100A0000E1E2F0E0EC0FFD1FE40FF11D5081F20177
:100A1000648962B9658968B9668960930B016789E1
:100A200065B9608D60930801618D61BB628D6093D3
:100A30000201638D6BB9648D64BB658D60930501A4
:100A4000E1E2F0E0EC0FFD1FE20DF11D6081F2012B
:100A5000768D72B9778D78B970A170930B0171A101
:100A600075B972A17093080173A171BB74A17093E1
:100A7000020175A17BB976A174BB77A170930501C2
:100A800070A572B971A578B972A570930B0173A5A1
:100A900075B974A57093080175A571BB76A570939F
:100AA000020177A57BB970A974BB71A97093050188
:100AB000361211C0FFE12F1651F0552341F00C59A9
:100AC0001F4F54E6450E511C242E312C04C0240126
:100AD0008501312C212C981709F4D8CE31111DC075
:100AE00060E080E192E011DC22962FAD2297222374
:100AF00009F475C020E05DEA652E52E0752E6FE5C1
:100B0000862E6FE0962E7DE2A72E7FE0B72E240181
:100B1000850122961FAE229775C0832F8F7081307A
:100B200099F4F701F595E795E60DF71D632FE0FCC5
:100B300002C0607F04C062956F708081682B608303
:100B40005FEFE51AF50A60C0832F8F73803359F584
:100B5000632F80E192E024962FAF249723963FAF36
:100B60002397D3DB24962FAD2497822F8370922F67
:100B70009695969523963FAD2397632F607CE1E091
:100B8000F0E0EC0FFD1FE90FF11D882349F070E044
:100B9000880F02C0759567958A95E2F78081682B6A
:100BA00060832F5F31C0303171F460E180E192E009
:100BB000ACDBD601FE01319681918D93EC15FD05DC
:100BC000D9F720E021C06FEF630F80E192E0249617
:100BD0002FAF24979ADB24962FAD249715C020E0E1
:100BE0008DE2682E8FE0782E9FED892E92E0992E6F
:100BF0003DEAA32E32E0B32E2401850151E0229676
:100C00005FAF2297E12CF12C80912A028F5F8F73C6
:100C100080932A023BCEE0E1F2E01382128288EE5A
:100C200093E0A0E0B0E084839583A683B78384E05B
:100C300092E09183808385EC90E09587848784ECB3
:100C400090E09787868780EC90E0918B808B81EC99
:100C500090E0938B828B82EC90E0958B848B86EC7A
:100C600090E0978B868B118E128E138E148E0895C2
:100C7000EE0FFF1F881F8BBF0790F691E02D199490
:0C0C800081E090E0F89400C0F894FFCFF1
:100C8C0000000000850102014F012D014101CB0143
:00000001FF
